:020000040800F2
:10000000480A002091010008B5280008B728000818
:10001000BB280008BF280008C32800080000000013
:10002000000000000000000000000000C7280008D9
:10003000C928000800000000CB280008472300085A
:10004000A7010008A7010008A7010008A7010008F0
:10005000A7010008A7010008A7010008A7010008E0
:10006000A7010008A7010008A7010008ED2D00085E
:10007000A7010008A7010008732E0008A7010008C7
:10008000A7010008A7010008A7010008A7010008B0
:10009000A7010008A7010008A7010008A7010008A0
:1000A000A7010008A7010008A7010008A701000890
:1000B0004528000875300008A7010008A7010008BE
:1000C000A7010008A7010008A7010008A701000870
:1000D000A70100082D250008A7010008A7010008B6
:1000E000A7010008A7010008A701000800F002F816
:1000F00000F03FF80AA090E8000C82448344AAF183
:100100000107DA4501D100F034F8AFF2090EBAE880
:100110000F0013F0010F18BFFB1A43F0010318473B
:10012000283A0000483A0000103A24BF78C878C145
:10013000FAD8520724BF30C830C144BF04680C60ED
:10014000704700000023002400250026103A28BF35
:1001500078C1FBD8520728BF30C148BF0B60704739
:10016000752902F0CF87002070471FB51FBD10B55D
:1001700010BD03F078F91146FFF7F7FF02F06DFBB1
:1001800003F096F903B4FFF7F2FF03BC02F0F6F8B0
:1001900008480047FEE7FEE7FEE7FEE7FEE7FEE76A
:1001A000FEE7FEE7FEE7FEE703480449044A054B85
:1001B00070470000ED00000848040020480A0020B5
:1001C000480600204806002031490143314A1160A9
:1001D000704770B5002100230F22C47804B32D4C62
:1001E000246804F4E064C4F5E064210AC1F1040366
:1001F000CA40447804FA03F1847814402143090189
:10020000254C0678A155047804F01F050124AC4064
:1002100005786D11AD0005F1E025C5F8004109E054
:10022000047804F01F050124AC401C4D06787611BB
:1002300045F8264070BD1A4A0A400243154B1B1F61
:100240001A60704739B1134A121D12680243114BEC
:100250001B1D1A6006E00F4A121D126882430D4BE7
:100260001B1D1A607047042808D14FF0E02109696E
:1002700041F004014FF0E022116107E04FF0E0216E
:10028000096921F004014FF0E0221161704700007C
:100290000000FA050CED00E000E400E080E100E081
:1002A00080FFFF1F10B50446FA48844208D101219F
:1002B000401500F055FD0021601500F051FD17E0DC
:1002C000F548844208D10121001500F049FD0021C4
:1002D000201500F045FD0BE0F048844208D10121D3
:1002E000C80300F03DFD00214FF4004000F038FD50
:1002F00010BD30B50246002000235068E84C204075
:100300000D790C6844EA0524204350609068E54C60
:100310002040D1E902542C434D7944EA450420435E
:100320009060D06A20F470000C7C641EE4B2234319
:1003300040EA0350D06230BD00210160017141717B
:100340008160C16001210174704721B1826842F06F
:100350000102826003E0826822F00102826070473D
:1003600021B1826842F48072826003E0826822F4E4
:1003700080728260704710B50023CBB21AB1446816
:100380001C43446002E044689C43446010BD8168A3
:1003900041F0080181607047014600208A6802F040
:1003A00008020AB1012000E000207047816841F096
:1003B000040181607047014600208A6802F004024F
:1003C0000AB1012000E00020704721B1826842F4A8
:1003D000A002826003E0826822F4A002826070477B
:1003E000014600208A6802F480020AB1012000E080
:1003F0000020704710B50A4600210023416821F40F
:100400006041531E41EA4331416010BD21B1426851
:1004100042F40062426003E0426822F400624260FB
:100420007047F0B504460D4600200021092D11DD6E
:10043000E068A5F10A0606EB4607072606FA07F16B
:100440008843A5F10A0606EB460603FA06F10843BF
:10045000E0600CE0206905EB4507072606FA07F186
:10046000884305EB450603FA06F108432061072A95
:100470000FDA606B561E06EB86071F2606FA07F199
:100480008843561E06EB860605FA06F108436063AC
:1004900022E00D2A0FDA206BD61F06EB86071F26F7
:1004A00006FA07F18843D61F06EB860605FA06F121
:1004B0000843206310E0E06AA2F10D0606EB860710
:1004C0001F2606FA07F18843A2F10D0606EB860601
:1004D00005FA06F10843E062F0BD21B1826842F4FA
:1004E0008012826003E0826822F48012826070478A
:1004F0000146C86C80B2704766484C30006870474F
:1005000021B1426842F48062426003E0426822F412
:1005100080624260704721B1426842F4805242607A
:1005200003E0426822F48052426070470A4600218C
:10053000816821F4E04111438160704721B18268F4
:1005400042F40042826003E0826822F4004282604A
:10055000704721B1826842F40212826003E082682F
:1005600022F4021282607047014600208A6802F479
:1005700000120AB1012000E000207047F0B50446E7
:100580001546002000220026092911DDE068A1F1AE
:100590000A0707EB470C072707FA0CF29043A1F173
:1005A0000A0707EB470703FA07F21043E0600CE085
:1005B000206901EB410C072707FA0CF2904301EB8D
:1005C000410703FA07F210432061A06BC0F3015604
:1005D000EF1C06F1010CA7EB0C0707EB870C1F279C
:1005E00007FA0CF29043EF1C06F1010CA7EB0C0785
:1005F00007EB870701FA07F21043A063F0BD10B5BF
:100600000A4600210023816B21F44011531E41EA68
:100610000351816310BD08B5002300930090009B37
:100620000B440093009B1A6008BD08B502460020E9
:100630000090009201F12800009B1844009000985F
:10064000006880B208BD0A4600214168164B194077
:100650001143416070474162826270470A4600213F
:10066000416821F01F0111434160704740B10949C1
:100670000831096841F40001064A0832116007E0B8
:1006800004490831096821F40001024A0832116066
:10069000704700000024014000280140003C014058
:1006A000FFFEF0FFFDF7F1FFFFFD3FFF02460020D8
:1006B00013680B400BB1012000E000207047CA43D3
:1006C0000260704770B502460020002300240B1220
:1006D0005568CEB205EA060415681D4015B10CB187
:1006E000012000E0002070BD00220A12D343036005
:1006F0007047000010B50446CC48844208D101215F
:10070000042000F02DFB0021042000F029FB46E02E
:10071000C748844208D10121082000F021FB0021B4
:10072000082000F01DFB3AE0C248844208D10121B4
:10073000102000F015FB0021102000F011FB2EE02E
:10074000BD48844208D10121202000F009FB00218E
:10075000202000F005FB22E0B848844208D10121A6
:10076000402000F0FDFA0021402000F0F9FA16E0E8
:10077000B348844208D10121802000F0F1FA002121
:10078000802000F0EDFA0AE0AE48844207D1012152
:10079000801500F0E5FA0021A01500F0E1FA10BD87
:1007A00010B50121084600F0DBFA0021012000F01D
:1007B000D7FA10BD2DE9F0410246002500260020A1
:1007C00000230024002791F803C00CF00F0591F8D6
:1007D00003C00CF0100CBCF1000F03D091F802C064
:1007E0004CEA050591F800C0BCF1000F31D0146847
:1007F00000202BE04FF0010C0CFA00F3B1F800C020
:100800000CEA03069E4220D183004FF00F0C0CFA35
:1008100003F7BC4305FA03FC4CEA040491F803C057
:10082000BCF1280F06D14FF0010C0CFA00FCC2F805
:1008300014C00AE091F803C0BCF1480F05D14FF095
:10084000010C0CFA00FCC2F810C0401C0828D1D3DF
:100850001460B1F800C0BCF1FF0F34DD5468002013
:100860002EE000F1080C4FF0010808FA0CF3B1F883
:1008700000C00CEA03069E4221D183004FF00F0C0A
:100880000CFA03F7BC4305FA03FC4CEA040491F8A4
:1008900003C0BCF1280F05D100F1080C08FA0CF8D0
:1008A000C2F8148091F803C0BCF1480F07D100F1E1
:1008B000080C4FF0010808FA0CF8C2F81080401C30
:1008C0000828CED35460BDE8F0814FF6FF71018057
:1008D000022181700421C170704702460020936894
:1008E0000B400BB1012000E00020704701468868F2
:1008F00080B2704702460020D3680B400BB1012044
:1009000000E0002070470146C86880B2704701616E
:100910007047416170470AB1016100E04161704771
:10092000C16070474FF480320A4382618161826105
:1009300082698269704702460020434B18684FF66F
:100940008073184040EA021008433F4B186070471C
:100950003E49C8617047F0B50A46002300240021D3
:10096000002500F00046B6F1004F02D1364EF16985
:1009700001E0354E7168C0F3034583B200F44016C0
:10098000B6F5401F08D121F070612F4E766826F031
:1009900070662D4F7E6012E000F48016B6F5801F61
:1009A00006D1032606FA05F4A14341F0706106E082
:1009B000460D360103FA06F6B14341F0706122B1EB
:1009C000460D360103FA06F6314300F00046B6F153
:1009D000004F02D11C4EF16101E01B4E7160F0BD71
:1009E00030B500228B071C0F0F2303FA04F2164BBD
:1009F00008338C1053F824309343134C08348D1073
:100A000044F8253023468C1053F824308C07240FEB
:100A100000FA04F423430C4C08348D1044F82530BC
:100A200030BD0A49DC310860704700000008014011
:100A3000000C01400010014000140140001801406A
:100A4000001C014000200140000001400000204245
:100A5000DF48006840F00100DD4908600846406852
:100A6000DC490840DA49486008460068DA4908402D
:100A7000D74908600846006820F4802008600846CE
:100A8000406820F4FE0048604FF41F008860704703
:100A9000CF49096821F48031CD4A116011460968B7
:100AA00021F480211160B0F5803F03D0B0F5802F94
:100AB0000ED106E0C649096841F48031C44A11608C
:100AC00007E0C349096841F4A021C14A116000E070
:100AD00000BF00BF704710B5014600220023002070
:100AE0004A11012A02D1BA4C236806E0022A02D137
:100AF000B74C236A01E0B64C636A01F01F0201247F
:100B000094401C400CB1012000E0002010BD38B51D
:100B1000002000900024002500BF3120FFF7DBFFFC
:100B200005460098401C00900098B0F5A06F01D0D9
:100B3000002DF2D03120FFF7CEFF08B1012400E0F4
:100B40000024204638BD01460020A14A106820F04C
:100B5000F80040EAC10010607047A0490860704783
:100B6000024600209A4B586820F47C1042EA0103A8
:100B70001843974B5860704798490866704701467C
:100B80000020934A506820F00300084350607047EB
:100B90008F48406800F00C007047014600208C4AE6
:100BA000506820F0F0000843506070470146002074
:100BB000874A506820F4E06008435060704701465F
:100BC0000020834A506820F4605040EAC100506021
:100BD000704729B17E4A527A02437D4B5A7204E033
:100BE0007B4A527A82437A4B5A7270477B49D8319A
:100BF0000860704701460020754A506820F4404064
:100C00000843506070470021714A20321170704AC9
:100C100082F82010012802D004280AD104E0012122
:100C20006B4A2032117005E00521694A20321170AB
:100C300000E000BF00BF7047694908607047644921
:100C4000096A0143624A1162704765494439086084
:100C5000704730B500210022002400235C4D6D68F0
:100C600005F00C0121B1042905D0082923D105E0A4
:100C70005C4D056022E05B4D05601FE0544D6D68E2
:100C800005F47012524D6D6805F48034022505EBB1
:100C900092421CB9544D554305600BE04C4D6D68B4
:100CA00005F400351DB1504D5543056002E04D4D32
:100CB0005543056002E04B4D056000BF00BF444D49
:100CC0006D6805F0F0010909484D6B5C0568DD4071
:100CD00045603F4D6D6805F4E061090A434D6B5C6A
:100CE0004568DD4085603A4D6D6805F46051C90A7C
:100CF0003E4D6B5C4568DD40C560354D6D6805F463
:100D00004041890B3A4D6B5CC568B5FBF3F5056155
:100D100030BD29B12E4A526902432D4B5A6104E07D
:100D20002B4A526982432A4B5A61704729B1284A9B
:100D300092690243264B9A6104E0254A92698243F4
:100D4000234B9A61704729B1214AD2690243204B53
:100D5000DA6104E01E4AD26982431D4BDA617047B2
:100D600029B11B4AD2680243194BDA6004E0184AE1
:100D7000D2688243164BDA60704729B1144A12696F
:100D80000243134B1A6104E0114A12698243104B6B
:100D90001A61704712494039086070470F49C864AA
:100DA00070470B49C87170470948406A40F080702D
:100DB00007494862704701460020054A92680A4088
:100DC0000AB1012000E00020704701498872704795
:100DD000001002400000FFF8FFFFF6FE0000424254
:100DE0008004424200127A0000093D000000002009
:100DF0001000002010B50446FE48844208D10121AD
:100E0000C014FFF7ADFF0021E014FFF7A9FFC4E015
:100E1000B4F1804F08D101210846FFF7AEFF002151
:100E20000120FFF7AAFFB8E0F348844208D101216E
:100E30000220FFF7A2FF00210220FFF79EFFACE097
:100E4000EE48844208D101210420FFF796FF0021DB
:100E50000420FFF792FFA0E0E948844208D1012175
:100E60000820FFF78AFF00210820FFF786FF94E0A3
:100E7000E448844208D101211020FFF77EFF0021C1
:100E80001020FFF77AFF88E0DF48844208D1012173
:100E90002020FFF772FF00212020FFF76EFF7CE08B
:100EA000DA48844208D101214014FFF759FF00219C
:100EB0006014FFF755FF70E0D548844209D1012145
:100EC000C804FFF74DFF00214FF40020FFF748FF53
:100ED00063E0D048844209D101210805FFF740FFB3
:100EE00000214FF48010FFF73BFF56E0CA488442D0
:100EF00009D101214805FFF733FF00214FF400100D
:100F0000FFF72EFF49E0C548844208D10121402067
:100F1000FFF733FF00214020FFF72FFF3DE0C048DF
:100F2000844208D101218020FFF727FF0021802083
:100F3000FFF723FF31E0BB48844208D1012180152F
:100F4000FFF71BFF0021A015FFF717FF25E0B648AC
:100F5000844209D101210804FFF702FF00214FF468
:100F60008030FFF7FDFE18E0B048844209D101212E
:100F70004804FFF7F5FE00214FF40030FFF7F0FEC4
:100F80000BE0AB48844208D101218804FFF7E8FE5A
:100F900000214FF48020FFF7E3FE10BD00220288FD
:100FA000944B98420ED0994B98420BD0B0F1804FA1
:100FB00008D0914B984205D0904B984202D0904B6C
:100FC000984204D14FF68F731A404B881A438D4BC9
:100FD000984207D08C4B984204D04FF6FF431A40FA
:100FE000CB881A4302808B8883850B880385814BCD
:100FF00098420BD0854B984208D08B4B984205D035
:101000008A4B984202D08A4B984201D10B7A0386D0
:1010100001238382704770B5002400220023058CD1
:101020004FF6FE7635400584028C8388048B4FF69C
:101030008F752C40B51E2C400D882C43751E2A4000
:101040000D892A434D882A436A4DA8420BD06F4D23
:10105000A84208D0744DA84205D0744DA84202D0D1
:10106000734DA84213D14FF6F7752A404D892A4394
:101070004FF6FB752A408D882A434FF6FF652B40BB
:101080004FF6FF552B408D892B43CD892B43838011
:101090000483CD888586028470BD70B5002400224B
:1010A0000023058C4FF6EF7635400584028C83884B
:1010B000048B48F6FF752C404FF6FF452C400D88F9
:1010C0004FF6FF7606EA05252C434FF6DF752A40DA
:1010D0000D8906EA05152A434D8806EA05152A43B7
:1010E000444DA84202D0494DA8421DD14FF67F750C
:1010F0002A404D894FF6FF7606EA05152A434FF63A
:10110000BF752A408D8806EA05152A434FF6FF353C
:101110002B404FF2FF752B408D8906EA85052B4346
:10112000CD8906EA85052B4383800483CD88058716
:10113000028470BD70B5002400220023058C4FF698
:10114000FF6635400584028C8388848B4FF68F754B
:101150002C404FF6FC752C400D882C434FF6FF5564
:101160002A400D894FF6FF7606EA05252A434D8869
:1011700006EA05252A431F4DA84202D0234DA84266
:101180001DD14FF2FF752A404D894FF6FF7606EAD2
:1011900005252A434FF6FF352A408D8806EA0525A6
:1011A0002A434EF6FF752B404DF6FF752B408D8977
:1011B00006EA05152B43CD8906EA05152B438380E6
:1011C0008483CD888587028470BD70B5002200239A
:1011D0000024058C4EF6FF7635400584038C848808
:1011E000828B48F6FF752A404FF6FF452A400D884E
:1011F00020E00000002C01400004004000080040F6
:10120000000C004000100040001400400034014079
:10121000004C0140005001400054014000180040C3
:10122000001C0040002000400040014000440140FC
:10123000004801404FF6FF7606EA05252A434DF6A1
:10124000FF752B400D8906EA05352B434D8806EACC
:1012500005352B43FA4DA84202D0FA4DA84208D1D9
:101260004BF6FF752C408D894FF6FF7606EA851503
:101270002C4384808283CD88A0F84050038470BDC5
:10128000828B4FF2FF331A408283828B4FF6FF73BB
:1012900003EA01231A4382837047F0B50C461546D2
:1012A000002200210026078C4EF6FF7C07EA0C077F
:1012B0000784828B018C4FF6FF7707EA043640F6ED
:1012C000FF473A404FF6FF7707EA05273A434FF6C4
:1012D000FF7707EA03373A43D94FB8420ED0D94FC8
:1012E000B8420BD0B0F1804F08D0D74FB84205D0EC
:1012F000D64FB84202D0D64FB84206D14DF6FF774E
:10130000394046F48057394305E047F6FF573940E6
:1013100044F48057394382830184F0BD828B4FF6B9
:10132000F3731A408283828B0A4382837047F0B53D
:101330000C461546002200210026078C4FF6FF6C54
:1013400007EA0C070784828B018C4FF6FF7707EAC8
:1013500004264FF60C773A404FF6FF7707EA03175B
:101360002F433A43B64FB8420ED0B64FB8420BD0D7
:10137000B0F1804F08D0B44FB84205D0B34FB84257
:1013800002D0B34FB84206D14FF6FF57394046F46A
:101390008077394305E04FF2FF57394044F48077B6
:1013A000394382830184F0BD028B4FF2FF331A4030
:1013B0000283028B4FF6FF7303EA01231A43028371
:1013C0007047F0B50C461546002200210026078C18
:1013D0004FF6EF7C07EA0C070784028B018C4FF66F
:1013E000FF7707EA041640F6FF473A404FF6FF77CB
:1013F00007EA03373A434FF6FF7707EA05273A43F0
:101400008F4FB8420ED08F4FB8420BD0B0F1804F03
:1014100008D08D4FB84205D08C4FB84202D08C4FC7
:10142000B84206D14FF6DF77394046F0100739430E
:1014300005E04FF65F77394044F0100739430283E7
:101440000184F0BD028B4FF6F3731A400283028BC6
:101450000A4302837047F0B50C461546002200216E
:10146000068C4FF6FE773E400684028B018C4FF6C9
:101470000C7632407E1C06EA03162E433243704E31
:10148000B0420ED06F4EB0420BD0B0F1804F08D0BA
:101490006D4EB04205D06D4EB04202D06C4EB0429F
:1014A00006D14FF6FD76314044F00106314305E0A8
:1014B0004FF6F576314044F0010631430283018452
:1014C000F0BD70B505460C465D4885420ED05D48BE
:1014D00085420BD0B5F1804F08D05B48854205D0DE
:1014E0005A48854202D05A48854200D100E000BFE8
:1014F000208850B92389A28861882846FFF7ABFF6E
:10150000E1882846FFF79EFF25E0208804280AD1BD
:101510002389A28861882846FFF753FFE18828467F
:10152000FFF742FF17E0208808280AD12389A28804
:1015300061882846FFF7FBFEE1882846FFF7EEFEAC
:1015400009E02389A28861882846FFF7A6FEE18882
:101550002846FFF795FE70BD2DE9F04105460C4683
:1015600000260127608808B9022600E00026A0882E
:10157000012801D1022700E001272088A0B9238992
:10158000A28861882846FFF766FFE1882846FFF7B2
:1015900059FF23893A4631462846FFF712FFE18872
:1015A0002846FFF701FF13E02389A28861882846B7
:1015B000FFF707FFE1882846FFF7F6FE23893A4642
:1015C00031462846FFF747FFE1882846FFF73AFFF4
:1015D000BDE8F0810A884B881A438B881A43CB8870
:1015E0001A430B891A434B891A438B891A43A0F873
:1015F000442070474FF6FF71818000210180C18037
:101600004180017270470021018041808180C1804A
:10161000018141818181C181704700210180418028
:10162000012181800021C18001817047002101805A
:1016300041808180C18001814181818170470000AA
:10164000002C01400034014000040040000800402C
:10165000000C004021B1028842F00102028004E047
:1016600002884FF6FE731A400280704731B1B0F81D
:10167000442042F40042A0F8442005E0B0F84420A1
:10168000C2F30E02A0F8442070471AB183890B43BD
:10169000838102E083898B43838170478182704715
:1016A00041EA0203A0F8483070471AB183890B431E
:1016B000838102E083898B438381704701894FF6E0
:1016C000F8721140018170470A46002101894FF6E6
:1016D0008F73194011430181704730B504460D46A0
:1016E00029462046FFF7F0FF208940F007002081BF
:1016F00030BD2DE9F04104460D4616461F46602DCB
:1017000006D13B46012231462046FFF75AFE05E04E
:101710003B46012231462046FFF79DFE29462046E2
:10172000FFF7D2FF208940F007002081BDE8F0815B
:1017300030B50C4600210189C9B24FF6FF7505EAA4
:101740000325154325432943018130BD2DE9F0418F
:1017500005460E4617469846002443463A4631460B
:101760002846FFF7E5FF2C894FF6F870044044F057
:1017700007044FF68F70044044F070042C81BDE8DC
:10178000F081F0B504460D4616461F463B463246EC
:1017900029462046FFF7CCFF208940F48040208175
:1017A000F0BD0185828270470A46002101884FF60C
:1017B0008F731940114301807047F0B50C461546F0
:1017C0001E460021002200230189028B038C4FF664
:1017D000F877394021434FF6FC473A4040F2011771
:1017E0003A434FF6DD773B404FF6FF7707EA06179F
:1017F0002F433B43018102830384F0BD0A4600214D
:10180000018B4FF68F7319401143018370470A46CD
:101810000021018B48F6FF7319404FF6FF7303EA6E
:1018200002231943018370470A460021818B4FF63A
:101830008F7319401143818370470A460021818BC1
:1018400048F6FF7319404FF6FF7303EA022319436A
:101850008183704721B1028842F08002028004E057
:1018600002884FF67F731A400280704721B1828848
:1018700042F00402828004E082884FF6FB731A4033
:101880008280704721B1828842F00802828004E0A1
:1018900082884FF6F7731A408280704721B18288A0
:1018A00042F00102828004E082884FF6FE731A4003
:1018B000828070470A460021018B4FF6F77319406A
:1018C0001143018370470A460021018B4FF2FF73D9
:1018D00019404FF6FF7303EA02231943018370474F
:1018E0000A460021818B4FF6F7731940114381831B
:1018F00070470A460021818B4FF2FF7319404FF663
:10190000FF7303EA02231943818370470A460021CB
:10191000018B4FF6FB7319401143018370470A4650
:101920000021018B4FF6FF3319404FF6FF7303EA96
:1019300002231943018370470A460021818B4FF629
:10194000FB7319401143818370470A460021818B44
:101950004FF6FF3319404FF6FF7303EA0223194392
:10196000818370470A460021018B4FF67F7319402F
:101970001143018370470A460021018BC1F30E0118
:101980004FF6FF7303EA02231943018370470A46A7
:101990000021818B4FF67F7319401143818370477B
:1019A0000A460021818BC1F30E014FF6FF7303EA53
:1019B00002231943818370470A460021018C4FF6A8
:1019C000FD7319401143018470470A460021018CC0
:1019D0004FF6F77319401143018470470A460021FE
:1019E000018C4FF6DF7319404FF6FF7303EA0213C1
:1019F0001943018470470A460021018C4FF67F731A
:101A000019404FF6FF7303EA02131943018470472C
:101A10000A460021018C4FF6FF5319404FF6FF7321
:101A200003EA02231943018470470A460021018C0E
:101A30004FF2FF7319404FF6FF7303EA0223194375
:101A4000018470470A460021018C4DF6FF7319404E
:101A50004FF6FF7303EA023319430184704730B530
:101A6000002301248C40A3B2048C9C430484048C86
:101A700002FA01F5ADB22C43048430BD30B5002329
:101A800004248C40A3B2048C9C430484048C02FA8A
:101A900001F5ADB22C43048430BD70B5034600207F
:101AA00000241846183001258D40ACB21D8CA5438A
:101AB0001D8409B1082909D100EB6100056825F0F2
:101AC000700505600568154305600EE00D1FC5F340
:101AD0004E052844056825F4E045056005684FF685
:101AE000FF7606EA02263543056070BD21B1028803
:101AF00042F00202028004E002884FF6FD731A40B1
:101B00000280704721B1028842F00402028004E0A2
:101B100002884FF6FB731A400280704721B1828819
:101B200042F08002828004E082884FF67F731A4080
:101B30008280704702884FF6F7731A40028002884D
:101B40000A430280704782884FF68F731A40828062
:101B500082880A438280704702894FF6F8731A40E0
:101B6000028102890A430281704702894FF67F731E
:101B70001A40028102890A430281704781847047BA
:101B800081857047818670470187704781877047DC
:101B9000A0F84010704702884FF6FF431A400280B9
:101BA00002880A43028070470146888E70470146CA
:101BB000088F70470146888F70470146B1F8400092
:101BC00070470146888C70470146088D7047024671
:101BD0000020138A0B400BB1012000E00020704769
:101BE000CA430282704730B5024600200023002419
:101BF000158A05EA0103958905EA010413B10CB1C0
:101C0000012000E0002030BDCA430282704700007E
:101C100010B50446FB48844209D101218803FFF72F
:101C20009FF800214FF48040FFF79AF832E0F64821
:101C3000844209D101214804FFF79FF800214FF4A5
:101C40000030FFF79AF825E0F048844209D10121DD
:101C50008804FFF792F800214FF48020FFF78DF8F9
:101C600018E0EB48844209D10121C804FFF785F848
:101C700000214FF40020FFF780F80BE0E548844294
:101C800008D101210805FFF778F800214FF48010F2
:101C9000FFF773F810BD2DE9F04786B005460E46F4
:101CA0000024A24600BFA1460027B08900B100BFB2
:101CB0002F462C8A4CF6FF700440F08804432C8297
:101CC000AC894EF6F3100440B0883189084371891D
:101CD00008430443AC81AC8A4FF6FF400440B0890E
:101CE0000443AC8201A8FEF7B4FFC648874202D184
:101CF000DDF810A001E0DDF80CA0A88900F4004098
:101D000040B10AEBCA0000EB0A1031684900B0FB91
:101D1000F1F807E00AEBCA0000EB0A10316889000D
:101D2000B0FBF1F86420B8FBF0F004012009642155
:101D300001FB1089A88900F4004040B1322000EB7B
:101D4000C900B0FBF1F000F00700044308E03220C6
:101D500000EB09106421B0FBF1F000F00F00044328
:101D60002C8106B0BDE8F0874FF4165101600021C8
:101D70008180C18001810C214181002181817047D6
:101D800010B502460020108A4FF2FF0318400B885E
:101D90004C8823438C882343CC88234318431082E8
:101DA00010BD0021018041808180C180704721B138
:101DB000828942F40052828104E082894DF6FF73E9
:101DC0001A4082817047F0B50346002400260025A2
:101DD000002040F66A17B94200D100BF1846C1F38F
:101DE000421401F01F06012707FA06F5012C01D164
:101DF0000C3004E0022C01D1103000E014301AB194
:101E000007682F43076002E00768AF430760F0BD33
:101E10001AB1838A0B43838202E0838A8B438382D5
:101E20007047028A4FF6F0731A400282028A0A4310
:101E30000282704782894FF2FF731A408281828941
:101E40000A438281704721B1828942F00202828175
:101E500004E082894FF6FD731A4082817047028A3E
:101E60004FF6DF731A400282028A0A4302827047E9
:101E700021B1028A42F48042028204E0028A4BF6D7
:101E8000FF731A4002827047C1F3080282807047D4
:101E900001468888C0F308007047818941F001013C
:101EA00081817047028BD2B20283028B42EA012207
:101EB00002837047028B02F47F420283028B0A4343
:101EC0000283704721B1828A42F02002828204E0BC
:101ED000828A4FF6DF731A408282704721B1828A6C
:101EE00042F01002828204E0828A4FF6EF731A40B9
:101EF0008282704721B1828A42F00802828204E025
:101F0000828A4FF6F7731A408282704721B1828924
:101F100042F40042828103E08289C2F30E02828190
:101F2000704721B1828A42F40062828204E0828A90
:101F30004FF2FF731A4082827047828A4FF6FB731A
:101F40001A408282828A0A438282704721B1828A41
:101F500042F00202828204E0828A4FF6FD731A4048
:101F60008282704702460020B1F5007F00D100BF99
:101F700013880B400BB1012000E00020704701F4F2
:101F80000072B2F5007F00D100BFCA4302807047E3
:101F900070B50246002400230025002040F66A1692
:101FA000B14200D100BFC1F3421501F01F03012669
:101FB00006FA03F3012D02D19689334006E0022D83
:101FC00002D1168A334001E0968A33400C12012672
:101FD00006FA04F41688344013B10CB1012000E075
:101FE000002070BD10B50022002340F66A14A14203
:101FF00000D100BF0A1201249440A3B2DC43048044
:1020000010BD00000038014000440040004800407E
:10201000004C00400050004001684FF6FE72114035
:1020200001600021016041608160C1608D4988428A
:1020300008D18C490839496841F00F01894A083AAA
:1020400051608AE087491431884208D185490839AE
:10205000496841F0F001834A083A51607DE08149C6
:102060002831884208D17F490839496841F47061B4
:102070007C4A083A516070E07A493C31884208D184
:1020800078490839496841F47041764A083A516004
:1020900063E074495031884208D17249083949686F
:1020A00041F470216F4A083A516056E06D4964313D
:1020B000884208D16B490839496841F47001694A7E
:1020C000083A516049E067497831884208D165494A
:1020D0000839496841F07061624A083A51603CE051
:1020E0006149884206D1011F096841F00F01021FB2
:1020F000116032E05C491431884208D15A49091F05
:10210000096841F0F001584A121F116025E0564954
:102110002831884208D15449091F096841F4706187
:10212000514A121F116018E04F493C31884208D1D2
:102130004D49091F096841F470414B4A121F116053
:102140000BE049495031884207D14749091F0968C6
:1021500041F47021444A121F1160704710B50022EB
:10216000026847F6F0739A430C6A8B6823430C6944
:1021700023434C6923438C692343CC6923434C6A32
:1021800023438C6A23431A430260CB6843600B6885
:1021900083604B68C36010BD0021016041608160B5
:1021A000C160016141618161C1610162416281621D
:1021B000704721B1026842F00102026004E0026847
:1021C0004FF6FE731A40026070471AB103680B4362
:1021D000036002E003688B4303607047416070470F
:1021E0000146486880B2704701460020002201F095
:1021F00080531BB11C4B083B1A6802E0194B083B8B
:102200001A6802EA01030BB1012000E000207047C8
:1022100000F0805119B11449091F086002E011490A
:1022200008394860704701460020002201F08053C1
:102230001BB10D4B083B1A6802E00A4B083B1A68B9
:1022400002EA01030BB1012000E00020704700F01A
:10225000805119B10449091F086002E00149083999
:1022600048607047080002400804024010B56FF053
:102270000400FDF7F8FF3C4800683C49B0FBF1F072
:102280003B4908700846007800EB4001C1EBC010E4
:102290004FF6FF7101EAC0003649088034480078E3
:1022A0004FF0E0214861002088610846006940F055
:1022B0000300086110BD01462D4A12784A434FF0D1
:1022C000E0235A6100229A611A46126942F0010223
:1022D0001A6100BF4FF0E022106900F001021AB14C
:1022E00000F48032002AF5D04FF0E022126922F08B
:1022F00001024FF0E0231A6100229A617047014603
:102300001C4A12884A434FF0E0235A6100229A6126
:102310001A46126942F001021A6100BF4FF0E02232
:10232000106900F001021AB100F48032002AF5D0E1
:102330004FF0E022126922F001024FF0E0231A610F
:1023400000229A6170470C480068401C0A490860E6
:10235000704709480068704700B5FFF7FAFF4FF46F
:102360007A71B0FBF1F000BD2C00002000127A0061
:1023700014000020160000201800002000BF704745
:1023800000BF894A128802F04002002AF9D0C2B286
:10239000854B1B1D1A80704710B586B0044601217D
:1023A00044F20400FEF7C2FC4FF40070ADF81400D4
:1023B00003208DF8160018208DF8170005A97B481A
:1023C000FEF7F8F94FF48060ADF8140004208DF8A2
:1023D000170005A97548FEF7EDF925208DF80000D6
:1023E00003208DF801008DF8020001208DF8030014
:1023F0006846FDF7EEFE01940020ADF80800ADF848
:102400000A00ADF80C00ADF810000C20ADF80E007D
:1024100001A96548FFF73FFC012240F225516248BF
:10242000FFF7D1FC01216048FFF7C1FC06B010BDE9
:1024300010B5044621465C48FFF726FD00BF402149
:102440005948FFF78FFD0028F9D010BD10B504469C
:1024500003E014F8010BFFF7EBFF20780028F8D118
:1024600010BD30B58BB005460C4600BF5048007813
:102470000028FBD000214F48FFF79BFE4A48001D73
:102480000090019510200290039400200490802079
:10249000059000200690079008904FF48050099016
:1024A00000200A9069464348FFF758FE0020404943
:1024B000087001213F48FFF77CFE012280213A4845
:1024C000FFF7A6FC0BB030BD00B58BB039484438DF
:1024D000406C00F0010038BB80223749374800F0DB
:1024E000A9FE3148001D0090344801901020029050
:1024F000802003900020049080200590002006900A
:10250000079008904FF48050099000200A90694687
:102510002848FFF723FE01212648FFF74AFE012243
:1025200080212148FFF774FC0BB000BD10B540F2CC
:1025300025511D48FFF72CFD10B31B48FFF7A8FCE1
:10254000C4B21F48008800F40040C8B91C48008885
:1025500000F4804060B10A2C03D0002018490880A4
:1025600020E01748008840F400401549088019E031
:102570000D2C06D11248008840F480401049088094
:1025800010E00F480088C0F30D000E490C540C48B1
:102590000088401C0A49088008460088C72801DDD9
:1025A0000020088010BD00000038014000080140F4
:1025B000440000204400024028010020A80100201F
:1025C00020000020600000202DE9F04104464FF477
:1025D0007A7094FBF0F0C5B2642094FBF0F00A210D
:1025E00090FBF1F201FB1200C6B20A2094FBF0F05E
:1025F00090FBF1F201FB1200C7B20A2094FBF0F14C
:1026000000FB114000F0FF0805F13001C8B2FFF7F0
:102610000FFF06F13001C8B2FFF70AFF07F13001E2
:10262000C8B2FFF705FF08F13001C8B2FFF700FF9D
:10263000BDE8F0812DE9FE4F8246504601F024F9B5
:10264000009001F073F807464FF066328E4B00F0B1
:102650006FFF054600F03AFF0446204601F0F4F80B
:102660001FFA80F909F13001C8B2FFF7E1FE4846D0
:1026700001F00AF90546214601F0E6F904468349CE
:10268000204601F015F90446204601F0DDF880B23D
:10269000642190FBF1F080B20290204601F0D4F862
:1026A00080B2642190FBF1F201FB12000A2190FB41
:1026B000F1F080B20190204601F0C6F880B20A2104
:1026C00090FBF1F201FB12001FFA80FB2E20FFF7B6
:1026D000AFFE02993031C8B2FFF7AAFE019930313E
:1026E000C8B2FFF7A5FE0BF13001C8B2FFF7A0FE9C
:1026F000BDE8FE8FFEB505462E46002000900190F5
:10270000029009240AE00A20B6FBF0F100FB1160F8
:102710000DF804000A20B6FBF0F6641E002CF2DA75
:10272000002406E01DF804103031C8B2FFF780FE27
:10273000641C092CF6DDFEBD10B555A0FFF786FE22
:1027400054480068FFF7D6FF002000F0F6FA044670
:10275000FFF73AFF012000F0F0FA0446FFF734FFDC
:10276000022000F0EAFA0446FFF72EFF032000F0F3
:10277000E4FA0446FFF728FF042000F0DEFA0446DE
:10278000FFF722FF052000F0D8FA0446FFF71CFFF0
:10279000062000F0D2FA0446FFF716FF072000F0EB
:1027A000CCFA0446FFF710FF082000F0C6FA0446F2
:1027B000FFF70AFF092000F0C0FA0446FFF704FF04
:1027C0000A2000F0BAFA0446FFF7FEFE0B2000F0E4
:1027D000B4FA0446FFF7F8FE0C2000F0AEFA044607
:1027E000FFF7F2FE0D2000F0A8FA0446FFF7ECFE1A
:1027F0000E2000F0A2FA0446FFF7E6FE0F2000F0DC
:102800009CFA0446FFF7E0FE23A0FFF71FFE23A07B
:10281000FFF71CFE10BD70B5FFF79EFD0446204873
:102820000068201A0DD01B4802681EA1204800F045
:1028300053FC054629461E48FFF713FE184804605E
:1028400000BF70BD10B501218807FFF7CCF918B1A2
:1028500001218807FFF7D8F910BD00F0A6F8FFF7AF
:1028600005FD4FF4A060FDF7AFFC4FF4E130FFF73A
:1028700093FD00F0A1F9012000F033F90A2000F0E7
:1028800064F900E030BFFDE766664A3F00007A4425
:102890003120000040000020203000000A0000002D
:1028A000280000203120256C75202E2E2E000000DF
:1028B00028020020704700BFFEE700BFFEE700BF10
:1028C000FEE700BFFEE77047704770470CB5002079
:1028D000019000906C48006840F480306A490860BC
:1028E00000BF6948006800F4003000900198401C67
:1028F0000190009818B90198B0F5A06FF1D1624825
:10290000006800F4003010B10120009001E00020C8
:1029100000900098012843D15C48006840F0100006
:102920005A4908600846006820F00300086008461D
:10293000006840F00200086053484068524948600F
:102940000846406848600846406840F48060486037
:102950000846406820F47C1048600846406840F40F
:10296000E81048600846006840F08070086000BFCA
:102970004548006800F000700028F9D042484068DF
:1029800020F00300404948600846406840F00200DB
:10299000486000BF3C48406800F00C000828F9D1AE
:1029A0000CBD10B5FFF792FF10BD10B5364800689A
:1029B00040F0010034490860084640683449084046
:1029C0003149486008460068324908402E4908608D
:1029D0000846006820F4802008600846406820F41B
:1029E000FE0048604FF41F008860FFF7DAFF4FF0E9
:1029F00000602949086010BD10B5002100200022A8
:102A0000214B5B6803F00C0121B1042906D0082991
:102A100028D107E0214B224C236027E01F4B204C9C
:102A2000236023E0184B5B6803F47010164B5B685F
:102A300003F48032022303EB904022B9194B434345
:102A4000174C23600DE0104B5B6803F4003323B197
:102A5000144B4343124C236003E0104B4343104C90
:102A6000236003E00D4B0E4C236000BF00BF064BFC
:102A70005B68C3F303130C4CE15C094B1B68CB4050
:102A8000074C236010BD00000010024000200240EF
:102A90000000FFF8FFFFF6FE08ED00E000127A00EC
:102AA0002C00002000093D00300000200EB501215F
:102AB0000846FEF748F94FF6FF70ADF804004720CE
:102AC000ADF800000020ADF80600ADF80200694640
:102AD0004FF08040FEF762FA01218807FEF7BAFD49
:102AE0000EBD1FB5044601210846FEF72CF904EB84
:102AF0004400C0EBC4100121C1EBC00080B2ADF8AE
:102B000008004720ADF804000020ADF80A00ADF839
:102B1000060001A94FF08040FEF740FA012211465D
:102B20009007FEF7B2FD1C208DF8000001208DF803
:102B300001008DF802008DF803006846FDF749FB9F
:102B400001218807FEF786FD1FBD1FB50446012140
:102B50000220FEF7F8F804EB4400C0EBC41001219A
:102B6000C1EBC00080B2ADF808004720ADF804000A
:102B70000020ADF80A00ADF8060001A90D48FEF7E7
:102B80000DFA012211460B48FEF77FFD1D208DF83E
:102B9000000002208DF8010001208DF802008DF860
:102BA00003006846FDF715FB01210248FEF752FDC0
:102BB0001FBD00000004004000B587B001214FF4A4
:102BC0000770FEF7B3F84FF40040FEF713F8FF204C
:102BD000ADF8040000208DF8070001A96048FDF75A
:102BE000E9FD0320ADF8040000208DF8070001A9DD
:102BF0005C48FDF7DFFD3F20ADF8040000208DF8B4
:102C0000070001A95848FDF7D5FD00F0B3F8574873
:102C1000FDF748FB0020029001208DF80C008DF894
:102C20000D004FF4602004900020059010208DF8D6
:102C3000180002A94D48FDF75CFB07230122002183
:102C40004A48FDF7EEFB0723022201214748FDF722
:102C5000E8FB0723032202214448FDF7E2FB072398
:102C6000042203214148FDF7DCFB07230522042150
:102C70003E48FDF7D6FB0723062205213B48FDF71A
:102C8000D0FB07231A4606213848FDF7CAFB072365
:102C9000082219463548FDF7C4FB072309220821FD
:102CA0003248FDF7BEFB07230A2209212F48FDF712
:102CB000B8FB07230B220A212C48FDF7B2FB0723A0
:102CC0000C220B212948FDF7ACFB07230D220C2118
:102CD0002648FDF7A6FB07230E220D212348FDF70A
:102CE000A0FB07230F220E212048FDF79AFB0723A4
:102CF00010220F211D48FDF794FB01211B48FDF711
:102D00002FFB01211948FDF720FB1848FDF73FFB79
:102D100000BF1648FDF740FB0028FAD11348FDF725
:102D200045FB00BF1148FDF746FB0028FAD1012101
:102D30000E48FDF74AFB07B000BD02460023002104
:102D400007E00B4800EB411030F812000344481C28
:102D5000C1B20A29F5DB0A20B3FBF0F080B270475C
:102D600000080140000C0140001001400024014017
:102D7000A802002000B58DB001210846FDF7C9FF6B
:102D80004648FFF749F9464801904648029000201E
:102D90000390A02004900020059080200690400021
:102DA0000790800008902020099000020A900020DF
:102DB0000B9001A93948FFF7D1F9012202213748C8
:102DC000FFF703FA0B208DF8300000208DF831005A
:102DD0008DF8320001208DF833000CA8FDF7F9F9C9
:102DE00001212E48FFF7E5F90DB000BD10B5022016
:102DF000FFF719FA30B1FFF7ACFA2B49086002204F
:102E0000FFF725FA10BD00B58DB001210846FDF78A
:102E100080FF22483C30FFF7FFF824480190002053
:102E200002901020039000200490059080200690CE
:102E300000200790089009904FF480500A900020DD
:102E40000B9001A915483C30FFF788F901220221B7
:102E500012483C30FFF7B9F90E208DF83000012000
:102E60008DF831008DF833000CA8FDF7B2F90DB0E4
:102E700000BD10B54FF40050FFF7D5F960B14FF425
:102E80000050FFF7E4F90120094908700022802171
:102E90000648001FFEF7BCFF10BD000008000240FE
:102EA0004C240140A80200204000002004380140CA
:102EB000440000201FB5044601210220FDF743FF16
:102EC00004EB84000121C1EB400080B2ADF80800A2
:102ED00041F61F40ADF804000020ADF80A00ADF83F
:102EE000060001A96A48FEF759F801221146684810
:102EF000FEF7CBFB1D208DF8000001208DF80100AE
:102F00008DF802008DF803006846FDF762F9012193
:102F10005F48FEF79FFB1FBD10B590B000BF40217A
:102F2000684600F0CCF900205A4908602EE00020E5
:102F30005949086016E059485749096800EB4110A3
:102F40005449096830F81100524A12685DF822109D
:102F50000844504A12684DF822004F480068401C4F
:102F60004D4908604C4800680A28E4DB4949096873
:102F70005DF821000A21B0FBF1F1464A12684DF8D4
:102F8000221044480068401C4249086041480068DB
:102F90001028CCDB00203F49086016E03D49096855
:102FA0005DF821003E490968884209D93949096814
:102FB0005DF821003A4908603648007839490870C0
:102FC00034480068401C33490860324800681028C3
:102FD000E4DB34480078162100FB01F4204610B0F1
:102FE00010BD10B5FFF798FF2F4908802FA0FFF7FD
:102FF0002DFA2D4800883049088008460088642151
:1030000090FBF1F02D4908702B4800880A2190FBB5
:10301000F1F090FBF1F201FB1200294908702648FB
:1030200000880A2190FBF1F201FB1200254908708B
:1030300022480078002805DD204909783031C8B2DF
:10304000FFF7F6F91D480078002803DC1C480078DB
:10305000002805DD1A4909783031C8B2FFF7E8F9D0
:10306000184909783031C8B2FFF7E2F916A0FFF726
:10307000EDF910BD10B501210548FEF7B4FD28B1EA
:1030800001210348FEF7C0FDFFF7ABFF10BD0000B4
:1030900000040040480000204C000020A80200204E
:1030A00050000020540000205C000020446972653C
:1030B0006374696F6E3A20005600002058000020AB
:1030C000590000205A00002020646567726565730E
:1030D0000A000000704700000FB41CB5084B06AA98
:1030E0007B4469460090059800F073F9044600207F
:1030F000694600F081F920461CBC5DF814FB000015
:10310000150300002DE9F0410646002410687529DA
:10311000314616A510D0AFF30080002802DA4042F5
:1031200013A507E031688A0701D512A502E0490717
:1031300004D511A5012401E0AFF3008000210A228B
:1031400006F1240709E0B0FBF2FCB0FBF2F302FB4E
:103150001C00303078541846491C0028F3D123460F
:103160002A463046BDE8F04100F0D4B80000000027
:103170002D0000002B000000200000002DE9F04190
:103180000F460546002028622846E968884770B344
:10319000252805D0D5E901219047286A401CF2E78F
:1031A000E9682846002688476C2804460AD0682C1F
:1031B00008D04C2C35D06A2C31D0742C31D07A2CDC
:1031C0002FD016E0E968064628468847B0420446F4
:1031D00008D16C2E23D04FF480662846E9688847D2
:1031E000044606E06C2E03D04FF4807601E01EE02A
:1031F0004026E4B1A4F14100192802D8203446F455
:1032000000663A46214628462E60FCF7A9FF60B1C9
:10321000012808D0FF1D27F007070837B4E78026EC
:10322000DBE70026D9E73F1DAEE72046B2E7286A74
:10323000BDE8F081032A40F2308010F0030C00F06A
:10324000158011F8013BBCF1020F624498BF11F8E0
:1032500001CB00F8013B38BF11F8013BA2F1040299
:1032600098BF00F801CB38BF00F8013B11F0030311
:1032700000F0C780083AC0F0088051F8043B083AD3
:1032800051F804CBA0E80810F5E7121D5CBF51F817
:10329000043B40F8043BAFF30080D20724BF11F891
:1032A000013B11F801CB48BF11F8012B24BF00F8F6
:1032B000013B00F801CB48BF00F8012B70474FF0ED
:1032C000000200B5134694469646203922BFA0E876
:1032D0000C50A0E80C50B1F12001BFF4F7AF090782
:1032E00028BFA0E80C5048BF0CC05DF804EB890073
:1032F00028BF40F8042B08BF704748BF20F8022BB6
:1033000011F0804F18BF00F8012B704770477047CD
:10331000704770472DE9F0470D469946924604469E
:1033200000F124080168880604D5E06921F0100145
:10333000216000E00120A84201DD471B00E00027DA
:10334000A1697A1902EB0900081AA0612078C00669
:1033500002D42046AFF30080002608E0D4E9012122
:103360001AF806009047206A401C761C20624E45E1
:10337000F4DB2078C0060AD52046AFF3008006E0D3
:10338000D4E9012130209047206A401C2062381E79
:10339000A7F10107F4DC07E0D4E9012118F80500E2
:1033A0009047206A401C2062281EA5F10105F3DC2D
:1033B0002046AFF300802078000602D50220BDE849
:1033C000F0870120FBE7000001694A1C02610878D0
:1033D000704700B58FB0CDE9013100210591054955
:1033E0007944CDE9031011466846FFF7C7FE0FB0D8
:1033F00000BD0000E5FFFFFF0A6802F8010B0A604C
:10340000704710B5203AC0F00B80B1E81850203A50
:10341000A0E81850B1E81850A0E81850BFF4F5AF74
:103420005FEA027C24BFB1E81850A0E8185044BFFE
:1034300018C918C0BDE810405FEA827C24BF51F86B
:10344000043B40F8043B08BF7047D20728BF31F85F
:10345000023B48BF11F8012B28BF20F8023B48BFB0
:1034600000F8012B7047754600F02CF8AE460500B9
:103470006946534620F00700854618B020B5FCF792
:1034800093FEBDE820404FF000064FF000074FF0DC
:1034900000084FF0000B21F00701AC46ACE8C00972
:1034A000ACE8C009ACE8C009ACE8C0098D4670477B
:1034B00010B50446AFF300802046BDE81040FCF78D
:1034C00061BE000000487047E803002021F0004280
:1034D000A2F16052B2F5801F01F0004328BFD2F183
:1034E0007F6C0BD95FEA001C43EAC20242EB5070CA
:1034F00018BF704728BF20F001007047B2F5801F49
:10350000BCBF184670474FEA410C1CF5001F02D2A1
:10351000084600F094BA70B500F0B4F800000089D5
:10352000FFF7F6BF4FF00040A0F5800070470000A5
:10353000DFF848C170B51CEA111E1EBF1CEA131546
:103540009EEA0C0F95EA0C0F00F06F8081EA0304ED
:1035500023EA4C134EEAD47E21EA4C1141F4801147
:1035600043F48013AE44A1FB024CA0FB0365AEF113
:103570007F7E361955EB0C05A1FB034C4CF1000383
:10358000A0FB021C16EB0C06654153F10003094237
:1035900018BF46F0010613F4007F0BD14FEA033148
:1035A0004FEA0530340341EA155140EA16506FF0F6
:1035B00003020AE04FEAC3214FEAC520F40241EAC0
:1035C000555140EA56506FF0020202EB2E4201EBD9
:1035D000025585EACE710AD05FEA440C18BF24F088
:1035E000004450F1000041F1000120EAD47040F2A3
:1035F000FE7C624500D270BDA84214BF4FF08044EB
:103600004FF04044002E08BF0024BEF1806FA8BFD9
:10361000A1F1C041BDE8704080F282804FF000000F
:1036200001F1C04101F0004170479EEA0C0F0CEA25
:10363000131518BF95EA0C0F06D04FF0000081EA71
:10364000030E0EF0004170BD00F01CF88900013E31
:1036500000F007B800F009B84FEA430C5FEA5C5C81
:1036600008D081EA030100F05BB84FEA410C5FEA41
:103670005C5CF6D14FF00000014970470000FF0785
:103680000000F87F0EF1020E2EF0030E5EF8046BC0
:10369000364205D4012A43EB030515F5001F12D865
:1036A000012841EB010C1CF5001F0CD80ED14FEA8C
:1036B000D17C15F5001F0CEB4C0C0CF1020C08BF73
:1036C0004CEBD37C04E04FF0080C01E04FEAD37CD4
:1036D0000CEB4C0526FA05F606F00706B6F1040CCD
:1036E00006D20EEB860CBDE870404CF0010C604732
:1036F000DFE80CF0090B02024FF000414FF0000030
:10370000A1F5002170BD19461046012851EB0104B6
:1037100018BFD4F5001484BF002001F0004170BD33
:103720000808A0F500114FEA3101704743004FEA45
:10373000D30C4FEA3C0C43401FBF40070CF16051D3
:1037400013F0FE4F70471CF0006F03D100200CF007
:10375000004170470CF0004343EA507010B540EA56
:10376000CC0000F026F900BF000000924FEA0001F3
:10377000FFF7D6BF4FF000414FF00000A1F5002148
:103780007047000090EA010F48BF81F0004100F14E
:103790006C81421A3CBF801A89184FEAD0524FF010
:1037A0007F4C1CEA410FA2EBD15318BF9CEA026F79
:1037B00000F03B804FF0004C4CEA00204CEA012125
:1037C00021FA03FC10EB0C0C1ED202F1FF325FEA6F
:1037D0001C2040EBC25038BF70471CF07F0F4FEAEF
:1037E000400C18BFBCF17F4F38BF7047C3F12003B6
:1037F000994008BF20F00100BCF17F4F38BF7047EF
:10380000A0F1C04000F01BB94FEA3C00000A40EBB9
:10381000C25028BF1CF0FF0F4FEA400CE6D018BF83
:10382000BCF17F4F38BF7047EAE79CEA026F05D0D2
:1038300010EA5C0F08BF00F00040704710B500F0C0
:10384000B8F800BF64FBBE3EC10DD1F19E0206DB9D
:103850004FEA002343F0004323FA02F0704700428E
:1038600007D54FEA4001B1F1FE4F02D24FF0000000
:10387000704710B500F09DF84992248000207047F1
:103880006FEA200070470000B0FA80F310FA03F2EC
:10389000C3F19D030AD0D90501EB1220530638BFAE
:1038A000704700F1010008BF20F0010070470000E0
:1038B0004FF47F0C1CEAD0121EBF1CEAD11392EA0F
:1038C0000C0F93EA0C0F00F0478090EA010F48BFFD
:1038D00042F480724FF0004C4CEA00204CEA012187
:1038E00002EB0302A0FB0113A2F50002002918BF9E
:1038F00043F001035B0028BF4FEA330342EB22424F
:103900005FEA132C4CEBC2502EBFBCEB436FB2F5F9
:103910007C0F70474FEA036CBCF1004F08BF20F0EA
:103920000100B2F57C0F38BF70470BD582F0FF0263
:1039300012F5803FC8BF704700F1C040D8BF00F00B
:103940000040704700F5000C5FEA4C0C48BF704720
:10395000B0F1C04000F073B890EA010F0CEAD11347
:1039600048BF42F48072624538BF634504D280EAA2
:10397000010000F00040704710B500F01AF800BFD9
:103980008900013E00F007B800F009B85FEA410C79
:103990005FEA1C6C08D080EA010000F050B85FEAD2
:1039A000400C5FEA1C6CF6D14FF00040A0F580009F
:1039B00070470EF1020E2EF0030E5EF8044B244207
:1039C00004D44FEA4102B2F17F4F11D84FEA4003CD
:1039D000B3F17F4F0CD80ED14FEAD07CB2F17F4FBC
:1039E0000CEB4C0C0CF1020C08BF4CEBD17C04E04E
:1039F0004FF0080C01E04FEAD17C0CEB4C0324FAA9
:103A000003F404F00704B4F1040C06D20EEB840CAA
:103A1000BDE810404CF0010C6047DFE80CF00708EF
:103A200002024FF00040A0F5800010BD08464200A1
:103A300018BFD2F1807288BF00F0004010BDFF2196
:103A400041EAD050C005704780F0004090EA010F75
:103A50007FF59FAE81F0004100F007B890EA010FBA
:103A600048BF81F000413FF594AE421A04D882F07D
:103A70000042A0EB020011444FEAD0524FF07F4CBD
:103A80001CEA410FA2EBD15318BF9CEA026F4AD047
:103A90004FF0004C4CEA00204CEA012121FA03FCD3
:103AA000B0EB0C0C0FD412F0FE0F36D05FEA4C00D6
:103AB0001DD5001240EBC25038BF70471CF03F0FBD
:103AC00018BF70470BE0A2F101025FEA1C2040EB37
:103AD000C25038BF70471CF07F0F18BF7047C3F14A
:103AE0002003994014BF401E20F001007047800859
:103AF0004FEA122308BF7047B0FA80FCA2EB0C0219
:103B0000CCF1280C60FA0CF093EA122F04BF00EB02
:103B1000C25070474FEAC3707047130A5FEADC1067
:103B200008BF7047F6E79CEA026F04D010EA5C0F0A
:103B300008BF0020704710B5FFF73BFF40DFF63E9F
:103B400081F0004070470000683B00080000002042
:103B50006000000028010008C83B00086000002049
:103B6000E80900004401000800000000010203040D
:103B70000102030406070809020406080000000009
:103B80000000000000000000000000000000000035
:103B90000000000000A24A04000000000000000035
:103BA00001020304060708090000000001000000EC
:103BB0000000000000000000000000000000000005
:083BC0000000000000000000FD
:04000005080000ED02
:00000001FF
