:020000040800F2
:10000000A808002089010008791900087B19000858
:100010007F190008831900088719000800000000F4
:100020000000000000000000000000008B19000824
:100030008D190008000000008F1900082315000822
:100040009F0100089F0100089F0100089F01000810
:100050009F0100089F0100089F0100089F01000800
:100060009F0100089F0100089F010008A51D0008CE
:100070009F0100089F0100089F0100089F010008E0
:100080009F0100089F0100089F0100089F010008D0
:100090009F0100089F0100089F0100089F010008C0
:1000A0009F0100089F0100089F0100089F010008B0
:1000B0009F0100089F0100089F0100089F010008A0
:1000C0009F0100089F0100089F0100089F01000890
:1000D0009F010008411600089F0100089F010008C9
:1000E0009F0100089F0100089F01000800F002F82E
:1000F00000F03AF80AA090E8000C82448344AAF188
:100100000107DA4501D100F02FF8AFF2090EBAE885
:100110000F0013F0010F18BFFB1A43F0010318473B
:100120009C230000BC230000103A24BF78C878C18B
:10013000FAD8520724BF30C830C144BF04680C60ED
:10014000704700000023002400250026103A28BF35
:1001500078C1FBD8520728BF30C148BF0B60704739
:100160001FB51FBD10B510BD01F037FE1146FFF7DA
:10017000F7FF01F0D2FB01F055FE03B4FFF7F2FFE9
:1001800003BC01F0E9F9000008480047FEE7FEE77C
:10019000FEE7FEE7FEE7FEE7FEE7FEE7FEE7FEE737
:1001A00003480449044A054B70470000ED0000086D
:1001B000A8020020A8080020A8040020A80400200D
:1001C00031490143314A1160704770B50021002365
:1001D0000F22C47804B32D4C246804F4E064C4F501
:1001E000E064210AC1F10403CA40447804FA03F12F
:1001F0008478144021430901254C0678A1550478E0
:1002000004F01F050124AC4005786D11AD0005F127
:10021000E025C5F8004109E0047804F01F05012439
:10022000AC401C4D0678761145F8264070BD1A4A40
:100230000A400243154B1B1F1A60704739B1134A1D
:10024000121D12680243114B1B1D1A6006E00F4A73
:10025000121D126882430D4B1B1D1A607047042843
:1002600008D14FF0E021096941F004014FF0E0228C
:10027000116107E04FF0E021096921F004014FF01E
:10028000E0221161704700000000FA050CED00E06B
:1002900000E400E080E100E080FFFF1F10B50446AD
:1002A000FA48844208D10121401500F055FD002193
:1002B000601500F051FD17E0F548844208D1012196
:1002C000001500F049FD0021201500F045FD0BE070
:1002D000F048844208D10121C80300F03DFD00210F
:1002E0004FF4004000F038FD10BD30B5024600204C
:1002F00000235068E84C20400D790C6844EA05243E
:10030000204350609068E54C2040D1E902542C43D2
:100310004D7944EA450420439060D06A20F470008F
:100320000C7C641EE4B2234340EA0350D06230BD2B
:1003300000210160017141718160C160012101747E
:10034000704721B1826842F00102826003E0826856
:1003500022F001028260704721B1826842F480720B
:10036000826003E0826822F480728260704710B578
:100370000023CBB21AB144681C43446002E04468D5
:100380009C43446010BD816841F008018160704762
:10039000014600208A6802F008020AB1012000E04C
:1003A00000207047816841F0040181607047014678
:1003B00000208A6802F004020AB1012000E0002057
:1003C000704721B1826842F4A002826003E0826833
:1003D00022F4A00282607047014600208A6802F47D
:1003E00080020AB1012000E00020704710B50A46E3
:1003F00000210023416821F46041531E41EA43314A
:10040000416010BD21B1426842F40062426003E0E5
:10041000426822F4006242607047F0B504460D461F
:1004200000200021092D11DDE068A5F10A0606EB88
:100430004607072606FA07F18843A5F10A0606EBE8
:10044000460603FA06F10843E0600CE0206905EB7C
:100450004507072606FA07F1884305EB450603FA28
:1004600006F108432061072A0FDA606B561E06EB7F
:1004700086071F2606FA07F18843561E06EB8606F6
:1004800005FA06F10843606322E00D2A0FDA206BBB
:10049000D61F06EB86071F2606FA07F18843D61FEC
:1004A00006EB860605FA06F10843206310E0E06AD1
:1004B000A2F10D0606EB86071F2606FA07F1884310
:1004C000A2F10D0606EB860605FA06F10843E06286
:1004D000F0BD21B1826842F48012826003E082683C
:1004E00022F48012826070470146C86C80B2704767
:1004F00066484C300068704721B1426842F480621F
:10050000426003E0426822F480624260704721B199
:10051000426842F48052426003E0426822F4805212
:10052000426070470A460021816821F4E04111438E
:100530008160704721B1826842F40042826003E02A
:10054000826822F400428260704721B1826842F4DE
:100550000212826003E0826822F402128260704715
:10056000014600208A6802F400120AB1012000E06E
:1005700000207047F0B504461546002000220026F2
:10058000092911DDE068A1F10A0707EB470C0727ED
:1005900007FA0CF29043A1F10A0707EB470703FAA9
:1005A00007F21043E0600CE0206901EB410C0727E3
:1005B00007FA0CF2904301EB410703FA07F21043EC
:1005C0002061A06BC0F30156EF1C06F1010CA7EBF4
:1005D0000C0707EB870C1F2707FA0CF29043EF1C60
:1005E00006F1010CA7EB0C0707EB870701FA07F2EE
:1005F0001043A063F0BD10B50A4600210023816BB3
:1006000021F44011531E41EA0351816310BD08B526
:10061000002300930090009B0B440093009B1A6002
:1006200008BD08B5024600200090009201F12800A4
:10063000009B184400900098006880B208BD0A46EC
:1006400000214168164B19401143416070474162D7
:10065000826270470A460021416821F01F01114360
:100660004160704740B109490831096841F400010F
:10067000064A0832116007E004490831096821F48C
:100680000001024A08321160704700000024014056
:1006900000280140003C0140FFFEF0FFFDF7F1FFA4
:1006A000FFFD3FFF0246002013680B400BB1012005
:1006B00000E000207047CA430260704770B50246F0
:1006C0000020002300240B125568CEB205EA060470
:1006D00015681D4015B10CB1012000E0002070BD6F
:1006E00000220A12D34303607047000010B504468D
:1006F000CC48844208D10121042000F02DFB0021C8
:10070000042000F029FB46E0C748844208D10121BB
:10071000082000F021FB0021082000F01DFB3AE03A
:10072000C248844208D10121102000F015FB0021AD
:10073000102000F011FB2EE0BD48844208D10121B9
:10074000202000F009FB0021202000F005FB22E022
:10075000B848844208D10121402000F0FDFA002170
:10076000402000F0F9FA16E0B348844208D1012194
:10077000802000F0F1FA0021802000F0EDFA0AE07C
:10078000AE48844207D10121801500F0E5FA00212E
:10079000A01500F0E1FA10BD10B50121084600F0E7
:1007A000DBFA0021012000F0D7FA10BD2DE9F0415D
:1007B000024600250026002000230024002791F88F
:1007C00003C00CF00F0591F803C00CF0100CBCF145
:1007D000000F03D091F802C04CEA050591F800C063
:1007E000BCF1000F31D0146800202BE04FF0010C59
:1007F0000CFA00F3B1F800C00CEA03069E4220D1C7
:1008000083004FF00F0C0CFA03F7BC4305FA03FC0E
:100810004CEA040491F803C0BCF1280F06D14FF054
:10082000010C0CFA00FCC2F814C00AE091F803C0F5
:10083000BCF1480F05D14FF0010C0CFA00FCC2F8D6
:1008400010C0401C0828D1D31460B1F800C0BCF11E
:10085000FF0F34DD546800202EE000F1080C4FF04B
:10086000010808FA0CF3B1F800C00CEA03069E4236
:1008700021D183004FF00F0C0CFA03F7BC4305FAAB
:1008800003FC4CEA040491F803C0BCF1280F05D125
:1008900000F1080C08FA0CF8C2F8148091F803C0B3
:1008A000BCF1480F07D100F1080C4FF0010808FA1D
:1008B0000CF8C2F81080401C0828CED35460BDE864
:1008C000F0814FF6FF710180022181700421C17017
:1008D00070470246002093680B400BB1012000E0F6
:1008E000002070470146886880B2704702460020A9
:1008F000D3680B400BB1012000E000207047014697
:10090000C86880B2704701617047416170470AB1A1
:10091000016100E041617047C16070474FF480326F
:100920000A438261816182618269826970470246FD
:100930000020434B18684FF68073184040EA0210BD
:1009400008433F4B186070473E49C8617047F0B597
:100950000A46002300240021002500F00046B6F1DD
:10096000004F02D1364EF16901E0354E7168C0F397
:10097000034583B200F44016B6F5401F08D121F0BC
:1009800070612F4E766826F070662D4F7E6012E003
:1009900000F48016B6F5801F06D1032606FA05F48A
:1009A000A14341F0706106E0460D360103FA06F6F8
:1009B000B14341F0706122B1460D360103FA06F6EB
:1009C000314300F00046B6F1004F02D11C4EF161F8
:1009D00001E01B4E7160F0BD30B500228B071C0F8B
:1009E0000F2303FA04F2164B08338C1053F824300B
:1009F0009343134C08348D1044F8253023468C1053
:100A000053F824308C07240F00FA04F423430C4CD1
:100A100008348D1044F8253030BD0A49DC310860B7
:100A20007047000000080140000C01400010014028
:100A30000014014000180140001C0140002001404A
:100A40000000014000002042DF48006840F0010043
:100A5000DD49086008464068DC490840DA494860DA
:100A600008460068DA490840D74908600846006827
:100A700020F4802008600846406820F4FE004860AA
:100A80004FF41F0088607047CF49096821F4803116
:100A9000CD4A11601146096821F480211160B0F53A
:100AA000803F03D0B0F5802F0ED106E0C64909681B
:100AB00041F48031C44A116007E0C349096841F438
:100AC000A021C14A116000E000BF00BF704710B50F
:100AD00001460022002300204A11012A02D1BA4C0B
:100AE000236806E0022A02D1B74C236A01E0B64C23
:100AF000636A01F01F02012494401C400CB10120E4
:100B000000E0002010BD38B5002000900024002532
:100B100000BF3120FFF7DBFF05460098401C009026
:100B20000098B0F5A06F01D0002DF2D03120FFF772
:100B3000CEFF08B1012400E00024204638BD014664
:100B40000020A14A106820F0F80040EAC1001060BF
:100B50007047A04908607047024600209A4B5868C9
:100B600020F47C1042EA01031843974B5860704709
:100B700098490866704701460020934A506820F063
:100B800003000843506070478F48406800F00C0035
:100B90007047014600208C4A506820F0F00008435E
:100BA0005060704701460020874A506820F4E0609A
:100BB00008435060704701460020834A506820F483
:100BC000605040EAC1005060704729B17E4A527AB5
:100BD00002437D4B5A7204E07B4A527A82437A4B3D
:100BE0005A7270477B49D83108607047014600202F
:100BF000754A506820F44040084350607047002117
:100C0000714A20321170704A82F82010012802D0F7
:100C100004280AD104E001216B4A2032117005E05A
:100C20000521694A2032117000E000BF00BF704703
:100C30006949086070476449096A0143624A116260
:100C40007047654944390860704730B5002100227B
:100C5000002400235C4D6D6805F00C0121B10429CE
:100C600005D0082923D105E05C4D056022E05B4DED
:100C700005601FE0544D6D6805F47012524D6D68AB
:100C800005F48034022505EB92421CB9544D5543BE
:100C900005600BE04C4D6D6805F400351DB1504DFD
:100CA0005543056002E04D4D5543056002E04B4D54
:100CB000056000BF00BF444D6D6805F0F0010909F3
:100CC000484D6B5C0568DD4045603F4D6D6805F43F
:100CD000E061090A434D6B5C4568DD4085603A4D33
:100CE0006D6805F46051C90A3E4D6B5C4568DD4096
:100CF000C560354D6D6805F44041890B3A4D6B5C1C
:100D0000C568B5FBF3F5056130BD29B12E4A5269BE
:100D100002432D4B5A6104E02B4A526982432A4B0D
:100D20005A61704729B1284A92690243264B9A6159
:100D300004E0254A92698243234B9A61704729B1A6
:100D4000214AD2690243204BDA6104E01E4AD2698B
:100D500082431D4BDA61704729B11B4AD2680243B6
:100D6000194BDA6004E0184AD2688243164BDA6005
:100D7000704729B1144A12690243134B1A6104E007
:100D8000114A12698243104B1A6170471249403967
:100D9000086070470F49C86470470B49C8717047B5
:100DA0000948406A40F08070074948627047014630
:100DB0000020054A92680A400AB1012000E00020A4
:100DC0007047014988727047001002400000FFF828
:100DD000FFFFF6FE000042428004424200127A0009
:100DE00000093D00000000201000002010B504465E
:100DF000FB48844209D101218803FFF7ADFF0021A0
:100E00004FF48040FFF7A8FF32E0F648844209D152
:100E100001214804FFF7ADFF00214FF40030FFF738
:100E2000A8FF25E0F048844209D101218804FFF79A
:100E3000A0FF00214FF48020FFF79BFF18E0EB4854
:100E4000844209D10121C804FFF793FF00214FF428
:100E50000020FFF78EFF0BE0E548844208D1012116
:100E60000805FFF786FF00214FF48010FFF781FF90
:100E700010BD2DE9F04786B005460E460024A24677
:100E800000BFA1460027B08900B100BF2F462C8AC1
:100E90004CF6FF700440F08804432C82AC894EF677
:100EA000F3100440B0883189084371890843044332
:100EB000AC81AC8A4FF6FF400440B0890443AC8259
:100EC00001A8FFF7C2FEC648874202D1DDF810A094
:100ED00001E0DDF80CA0A88900F4004040B10AEB65
:100EE000CA0000EB0A1031684900B0FBF1F807E0D6
:100EF0000AEBCA0000EB0A1031688900B0FBF1F878
:100F00006420B8FBF0F004012009642101FB108982
:100F1000A88900F4004040B1322000EBC900B0FBCA
:100F2000F1F000F00700044308E0322000EB091064
:100F30006421B0FBF1F000F00F0004432C8106B0F7
:100F4000BDE8F0874FF41651016000218180C18017
:100F500001810C21418100218181704710B5024639
:100F60000020108A4FF2FF0318400B884C8823435F
:100F70008C882343CC8823431843108210BD002162
:100F8000018041808180C180704721B1828942F413
:100F90000052828104E082894DF6FF731A408281FB
:100FA0007047F0B50346002400260025002040F6D7
:100FB0006A17B94200D100BF1846C1F3421401F0CC
:100FC0001F06012707FA06F5012C01D10C3004E0B9
:100FD000022C01D1103000E014301AB107682F4301
:100FE000076002E00768AF430760F0BD1AB1838A6B
:100FF0000B43838202E0838A8B4383827047028A99
:101000004FF6F0731A400282028A0A430282704746
:1010100082894FF2FF731A40828182890A4382815A
:10102000704721B1828942F00202828104E0828904
:101030004FF6FD731A4082817047028A4FF6DF73C4
:101040001A400282028A0A430282704721B1028A50
:1010500042F48042028204E0028A4BF6FF731A4097
:1010600002827047C1F30802828070470146888877
:10107000C0F308007047818941F001018181704708
:10108000028BD2B20283028B42EA012202837047B2
:10109000028B02F47F420283028B0A430283704771
:1010A00021B1828A42F02002828204E0828A4FF6D5
:1010B000DF731A408282704721B1828A42F01002A7
:1010C000828204E0828A4FF6EF731A408282704770
:1010D00021B1828A42F00802828204E0828A4FF6BD
:1010E000F7731A408282704721B1828942F400422C
:1010F000828103E08289C2F30E028281704721B1AE
:10110000828A42F40062828204E0828A4FF2FF7394
:101110001A4082827047828A4FF6FB731A4082829D
:10112000828A0A438282704721B1828A42F0020297
:10113000828204E0828A4FF6FD731A4082827047F1
:1011400002460020B1F5007F00D100BF13880B409C
:101150000BB1012000E00020704701F40072B2F5ED
:10116000007F00D100BFCA430280704770B50246BD
:10117000002400230025002040F66A16B14200D169
:1011800000BFC1F3421501F01F03012606FA03F365
:10119000012D02D19689334006E0022D02D1168A34
:1011A000334001E0968A33400C12012606FA04F41B
:1011B0001688344013B10CB1012000E0002070BD4E
:1011C00010B50022002340F66A14A14200D100BFEE
:1011D0000A1201249440A3B2DC43048010BD000035
:1011E000003801400044004000480040004C0040EE
:1011F0000050004001684FF6FE721140016000216E
:10120000016041608160C1608D49884208D18C498C
:101210000839496841F00F01894A083A51608AE06B
:1012200087491431884208D185490839496841F015
:10123000F001834A083A51607DE0814928318842B3
:1012400008D17F490839496841F470617C4A083AFD
:10125000516070E07A493C31884208D178490839B8
:10126000496841F47041764A083A516063E0744934
:101270005031884208D172490839496841F47021D7
:101280006F4A083A516056E06D496431884208D18E
:101290006B490839496841F47001694A083A51605C
:1012A00049E067497831884208D165490839496879
:1012B00041F07061624A083A51603CE061498842FD
:1012C00006D1011F096841F00F01021F116032E0D1
:1012D0005C491431884208D15A49091F096841F014
:1012E000F001584A121F116025E056492831884202
:1012F00008D15449091F096841F47061514A121F0D
:10130000116018E04F493C31884208D14D49091F0E
:10131000096841F470414B4A121F11600BE04949C2
:101320005031884207D14749091F096841F47021AB
:10133000444A121F1160704710B50022026847F638
:10134000F0739A430C6A8B6823430C6923434C69FE
:1013500023438C692343CC6923434C6A23438C6A1F
:1013600023431A430260CB6843600B6883604B6879
:10137000C36010BD0021016041608160C1600161F6
:1013800041618161C161016241628162704721B145
:10139000026842F00102026004E002684FF6FE7348
:1013A0001A40026070471AB103680B43036002E001
:1013B00003688B430360704741607047014648688B
:1013C00080B2704701460020002201F080531BB11B
:1013D0001C4B083B1A6802E0194B083B1A6802EAEA
:1013E00001030BB1012000E00020704700F08051A4
:1013F00019B11449091F086002E011490839486011
:10140000704701460020002201F080531BB10D4BB4
:10141000083B1A6802E00A4B083B1A6802EA01031B
:101420000BB1012000E00020704700F0805119B19D
:101430000449091F086002E0014908394860704703
:10144000080002400804024010B56FF00400FEF7E7
:1014500006FF3C4800683C49B0FBF1F03B4908708E
:101460000846007800EB4001C1EBC0104FF6FF7159
:1014700001EAC00036490880344800784FF0E02186
:101480004861002088610846006940F00300086157
:1014900010BD01462D4A12784A434FF0E0235A61AD
:1014A00000229A611A46126942F001021A6100BFD5
:1014B0004FF0E022106900F001021AB100F480320E
:1014C000002AF5D04FF0E022126922F001024FF01D
:1014D000E0231A6100229A61704701461C4A128873
:1014E0004A434FF0E0235A6100229A611A4612697A
:1014F00042F001021A6100BF4FF0E022106900F0D3
:1015000001021AB100F48032002AF5D04FF0E02237
:10151000126922F001024FF0E0231A6100229A6161
:1015200070470C480068401C0A4908607047094829
:101530000068704700B5FFF7FAFF4FF47A71B0FB0F
:10154000F1F000BD2400002000127A0014000020F9
:101550001600002018000020014600BF704700BFA1
:10156000564A128802F04002002AF9D0C2B2534B08
:101570001B1D1A80704710B586B00446012144F245
:101580000400FFF7CFFB4FF40070ADF81400032008
:101590008DF8160018208DF8170005A94848FFF7A8
:1015A00005F94FF48060ADF8140004208DF81700A1
:1015B00005A94348FFF7FAF825208DF8000003201D
:1015C0008DF801008DF8020001208DF803006846B7
:1015D000FEF7FBFD01940020ADF80800ADF80A000D
:1015E000ADF80C00ADF810000C20ADF80E0001A90C
:1015F0003248FFF73EFC012240F225512F48FFF709
:10160000D0FC01212D48FFF7C0FC06B010BD10B57D
:10161000044621462948FFF725FD00BF4021274801
:10162000FFF78EFD0028F9D010BD10B5044603E089
:1016300014F8010BFFF7EBFF20780028F8D110BD5C
:1016400010B540F225511D48FFF790FD10B31B481F
:10165000FFF70CFDC4B21B48008800F40040C8B975
:101660001848008800F4804060B10A2C03D00020A4
:101670001449088020E01348008840F400401149D4
:10168000088019E00D2C06D10E48008840F48040F7
:101690000C49088010E00B480088C0F30D000A498F
:1016A0000C5408480088401C0649088008460088F9
:1016B000C72801DD0020088010BD0000003801406F
:1016C00000080140200000203C0000202DE9F041EE
:1016D00004464FF47A7094FBF0F0C5B2642094FB9A
:1016E000F0F00A2190FBF1F201FB1200C6B20A20D1
:1016F00094FBF0F090FBF1F201FB1200C7B20A205C
:1017000094FBF0F100FB114000F0FF0805F13001FF
:10171000C8B2FFF77CFF06F13001C8B2FFF777FFD0
:1017200007F13001C8B2FFF772FF08F13001C8B20B
:10173000FFF76DFFBDE8F0812DE9FE4F8246504670
:1017400000F05CFD009000F0ABFC07464FF0663205
:10175000814B00F0A7FB054600F072FB04462046D3
:1017600000F02CFD1FFA80F909F13001C8B2FFF733
:101770004EFF484600F042FD0546214600F01EFEA1
:1017800004467649204600F04DFD0446204600F010
:1017900015FD80B2642190FBF1F080B202902046EA
:1017A00000F00CFD80B2642190FBF1F201FB12000D
:1017B0000A2190FBF1F080B20190204600F0FEFC7F
:1017C00080B20A2190FBF1F201FB12001FFA80FBAC
:1017D0002E20FFF71CFF02993031C8B2FFF717FF28
:1017E00001993031C8B2FFF712FF0BF13001C8B2D6
:1017F000FFF70DFFBDE8FE8FFEB505462E46002023
:1018000000900190029009240AE00A20B6FBF0F152
:1018100000FB11600DF804000A20B6FBF0F6641E10
:10182000002CF2DA002406E01DF804103031C8B2B2
:10183000FFF7EDFE641C092CF6DDFEBD10B548A0D7
:10184000FFF7F3FE47480068FFF7D6FF002000F0DF
:1018500050FA0446FFF73AFF012000F04AFA044626
:10186000FFF734FF022000F044FA0446FFF72EFF92
:10187000032000F03EFA0446FFF728FF042000F0A2
:1018800038FA0446FFF722FF052000F032FA04463A
:10189000FFF71CFF062000F02CFA0446FFF716FFA6
:1018A000072000F026FA0446FFF710FF082000F09A
:1018B00020FA0446FFF70AFF092000F01AFA04464E
:1018C000FFF704FF0A2000F014FA0446FFF7FEFEBB
:1018D0000B2000F00EFA0446FFF7F8FE0C2000F093
:1018E00008FA0446FFF7F2FE0D2000F002FA044663
:1018F000FFF7ECFE0E2000F0FCF90446FFF7E6FED1
:101900000F2000F0F6F90446FFF7E0FE16A0FFF7FF
:101910008CFE16A0FFF789FE10BD00F0A8F8FFF7B7
:1019200093FD4FF4A060FEF74BFC4FF4E130FFF75E
:1019300022FE00F01DF90EE000BF80210C48FFF7E9
:10194000FFFB0028F9D0FFF779FF0AA0FFF76DFE33
:101950000120FFF7C2FDEFE766664A3F00007A44C8
:101960003120000038000020203000000A00000074
:10197000003801400D0A0000704700BFFEE700BFBD
:10198000FEE700BFFEE700BFFEE770477047704705
:101990000CB50020019000906C48006840F4803045
:1019A0006A49086000BF6948006800F40030009090
:1019B0000198401C0190009818B90198B0F5A06FEB
:1019C000F1D16248006800F4003010B101200090AD
:1019D00001E0002000900098012843D15C48006895
:1019E00040F010005A4908600846006820F00300E3
:1019F00008600846006840F00200086053484068EC
:101A0000524948600846406848600846406840F4CB
:101A1000806048600846406820F47C1048600846B2
:101A2000406840F4E81048600846006840F0807064
:101A3000086000BF4548006800F000700028F9D039
:101A40004248406820F0030040494860084640682A
:101A500040F00200486000BF3C48406800F00C00C5
:101A60000828F9D10CBD10B5FFF792FF10BD10B5D5
:101A70003648006840F00100344908600846406874
:101A800034490840314948600846006832490840F6
:101A90002E4908600846006820F480200860084647
:101AA000406820F4FE0048604FF41F008860FFF794
:101AB000DAFF4FF000602949086010BD10B5002121
:101AC00000200022214B5B6803F00C0121B10429A6
:101AD00006D0082928D107E0214B224C236027E0BB
:101AE0001F4B204C236023E0184B5B6803F47010FD
:101AF000164B5B6803F48032022303EB904022B95B
:101B0000194B4343174C23600DE0104B5B6803F403
:101B1000003323B1144B4343124C236003E0104BBA
:101B20004343104C236003E00D4B0E4C236000BF79
:101B300000BF064B5B68C3F303130C4CE15C094B1D
:101B40001B68CB40074C236010BD00000010024012
:101B5000002002400000FFF8FFFFF6FE08ED00E065
:101B600000127A002400002000093D002800002017
:101B700000B587B001214FF40770FFF7D3F84FF499
:101B80000040FFF733F8FF20ADF8040000208DF887
:101B9000070001A96048FEF709FE0320ADF8040024
:101BA00000208DF8070001A95C48FEF7FFFD3F20EB
:101BB000ADF8040000208DF8070001A95848FEF791
:101BC000F5FD00F0B3F85748FEF768FB00200290DF
:101BD00001208DF80C008DF80D004FF4602004906A
:101BE0000020059010208DF8180002A94D48FEF73E
:101BF0007CFB0723012200214A48FEF70EFC072345
:101C0000022201214748FEF708FC07230322022194
:101C10004448FEF702FC0723042203214148FEF753
:101C2000FCFB0723052204213E48FEF7F6FB0723B1
:101C3000062205213B48FEF7F0FB07231A46062142
:101C40003848FEF7EAFB0723082219463548FEF715
:101C5000E4FB0723092208213248FEF7DEFB0723B5
:101C60000A2209212F48FEF7D8FB07230B220A215D
:101C70002C48FEF7D2FB07230C220B212948FEF744
:101C8000CCFB07230D220C212648FEF7C6FB0723B9
:101C90000E220D212348FEF7C0FB07230F220E2141
:101CA0002048FEF7BAFB072310220F211D48FEF73C
:101CB000B4FB01211B48FEF74FFB01211948FEF739
:101CC00040FB1848FEF75FFB00BF1648FEF760FBBD
:101CD0000028FAD11348FEF765FB00BF1148FEF754
:101CE00066FB0028FAD101210E48FEF76AFB07B017
:101CF00000BD02460023002107E00B4800EB411025
:101D000030F812000344481CC1B20A29F5DB0A204E
:101D1000B3FBF0F080B2704700080140000C0140B6
:101D200000100140002401400401002000B58DB0E6
:101D300001210846FEF7E9FF2148FFF75BFA214839
:101D400001902148029000200390A02004900020E0
:101D50000590802006904000079080000890202089
:101D6000099000020A9000200B9001A91448FFF787
:101D7000E3FA012202211248FFF715FB0B208DF830
:101D8000300000208DF831008DF8320001208DF8F0
:101D900033000CA8FEF719FA01210948FFF7F7FAFA
:101DA0000DB000BD10B50220FFF72BFB30B1FFF7DF
:101DB000BEFB064908600220FFF737FB10BD00009C
:101DC000080002404C24014004010020380000209B
:101DD00070477047704770477047754600F02CF8A1
:101DE000AE4605006946534620F00700854618B008
:101DF00020B5FEF7D5F9BDE820404FF000064FF0C2
:101E000000074FF000084FF0000B21F00701AC462F
:101E1000ACE8C009ACE8C009ACE8C009ACE8C0094E
:101E20008D46704710B50446AFF300802046BDE8EC
:101E30001040FEF7A2B9000000487047440200209D
:101E400021F00042A2F16052B2F5801F01F0004380
:101E500028BFD2F17F6C0BD95FEA001C43EAC202B3
:101E600042EB507018BF704728BF20F00100704748
:101E7000B2F5801FBCBF184670474FEA410C1CF5F5
:101E8000001F02D2084600F094BA70B500F0B4F812
:101E900000000089FFF7F6BF4FF00040A0F580007A
:101EA00070470000DFF848C170B51CEA111E1EBF64
:101EB0001CEA13159EEA0C0F95EA0C0F00F06F80D8
:101EC00081EA030423EA4C134EEAD47E21EA4C1142
:101ED00041F4801143F48013AE44A1FB024CA0FBFB
:101EE0000365AEF17F7E361955EB0C05A1FB034C63
:101EF0004CF10003A0FB021C16EB0C06654153F1EC
:101F00000003094218BF46F0010613F4007F0BD10D
:101F10004FEA03314FEA0530340341EA155140EAF4
:101F200016506FF003020AE04FEAC3214FEAC520C2
:101F3000F40241EA555140EA56506FF0020202EBBA
:101F40002E4201EB025585EACE710AD05FEA440CBD
:101F500018BF24F0004450F1000041F1000120EAD4
:101F6000D47040F2FE7C624500D270BDA84214BF1E
:101F70004FF080444FF04044002E08BF0024BEF1D3
:101F8000806FA8BFA1F1C041BDE8704080F282809F
:101F90004FF0000001F1C04101F0004170479EEA9E
:101FA0000C0F0CEA131518BF95EA0C0F06D04FF072
:101FB000000081EA030E0EF0004170BD00F01CF835
:101FC0008900013E00F007B800F009B84FEA430C61
:101FD0005FEA5C5C08D081EA030100F05BB84FEA7D
:101FE000410C5FEA5C5CF6D14FF00000014970479C
:101FF0000000FF070000F87F0EF1020E2EF0030E26
:102000005EF8046B364205D4012A43EB030515F54F
:10201000001F12D8012841EB010C1CF5001F0CD841
:102020000ED14FEAD17C15F5001F0CEB4C0C0CF1D6
:10203000020C08BF4CEBD37C04E04FF0080C01E02D
:102040004FEAD37C0CEB4C0526FA05F606F00706A2
:10205000B6F1040C06D20EEB860CBDE870404CF0D5
:10206000010C6047DFE80CF0090B02024FF0004161
:102070004FF00000A1F5002170BD1946104601285F
:1020800051EB010418BFD4F5001484BF002001F007
:10209000004170BD0808A0F500114FEA31017047FA
:1020A00043004FEAD30C4FEA3C0C43401FBF4007AC
:1020B0000CF1605113F0FE4F70471CF0006F03D11C
:1020C00000200CF0004170470CF0004343EA5070D0
:1020D00010B540EACC0000F026F900BF00000092E5
:1020E0004FEA0001FFF7D6BF4FF000414FF000006C
:1020F000A1F500217047000090EA010F48BF81F070
:10210000004100F16C81421A3CBF801A89184FEAE5
:10211000D0524FF07F4C1CEA410FA2EBD15318BFB5
:102120009CEA026F00F03B804FF0004C4CEA00202C
:102130004CEA012121FA03FC10EB0C0C1ED202F137
:10214000FF325FEA1C2040EBC25038BF70471CF0E2
:102150007F0F4FEA400C18BFBCF17F4F38BF70476C
:10216000C3F12003994008BF20F00100BCF17F4F6C
:1021700038BF7047A0F1C04000F01BB94FEA3C00E7
:10218000000A40EBC25028BF1CF0FF0F4FEA400C82
:10219000E6D018BFBCF17F4F38BF7047EAE79CEA32
:1021A000026F05D010EA5C0F08BF00F000407047D6
:1021B00010B500F0B8F800BF64FBBE3EC10DD1F110
:1021C0009E0206DB4FEA002343F0004323FA02F0AD
:1021D0007047004207D54FEA4001B1F1FE4F02D2ED
:1021E0004FF00000704710B500F09DF84992248030
:1021F000002070476FEA200070470000B0FA80F3BB
:1022000010FA03F2C3F19D030AD0D90501EB1220A5
:10221000530638BF704700F1010008BF20F00100ED
:10222000704700004FF47F0C1CEAD0121EBF1CEA5E
:10223000D11392EA0C0F93EA0C0F00F0478090EA5A
:10224000010F48BF42F480724FF0004C4CEA00206E
:102250004CEA012102EB0302A0FB0113A2F50002EC
:10226000002918BF43F001035B0028BF4FEA330386
:1022700042EB22425FEA132C4CEBC2502EBFBCEB68
:10228000436FB2F57C0F70474FEA036CBCF1004F0F
:1022900008BF20F00100B2F57C0F38BF70470BD5A6
:1022A00082F0FF0212F5803FC8BF704700F1C040C6
:1022B000D8BF00F00040704700F5000C5FEA4C0CFE
:1022C00048BF7047B0F1C04000F073B890EA010F0A
:1022D0000CEAD11348BF42F48072624538BF6345AF
:1022E00004D280EA010000F00040704710B500F011
:1022F0001AF800BF8900013E00F007B800F009B8E5
:102300005FEA410C5FEA1C6C08D080EA010000F033
:1023100050B85FEA400C5FEA1C6CF6D14FF0004009
:10232000A0F5800070470EF1020E2EF0030E5EF84D
:10233000044B244204D44FEA4102B2F17F4F11D83A
:102340004FEA4003B3F17F4F0CD80ED14FEAD07C57
:10235000B2F17F4F0CEB4C0C0CF1020C08BF4CEBB4
:10236000D17C04E04FF0080C01E04FEAD17C0CEB8B
:102370004C0324FA03F404F00704B4F1040C06D26D
:102380000EEB840CBDE810404CF0010C6047DFE818
:102390000CF0070802024FF00040A0F5800010BDCD
:1023A0000846420018BFD2F1807288BF00F000409A
:1023B00010BDFF2141EAD050C005704780F00040B9
:1023C00090EA010F7FF59FAE81F0004100F007B861
:1023D00090EA010F48BF81F000413FF594AE421AE8
:1023E00004D882F00042A0EB020011444FEAD05220
:1023F0004FF07F4C1CEA410FA2EBD15318BF9CEA6F
:10240000026F4AD04FF0004C4CEA00204CEA012108
:1024100021FA03FCB0EB0C0C0FD412F0FE0F36D0F7
:102420005FEA4C001DD5001240EBC25038BF704728
:102430001CF03F0F18BF70470BE0A2F101025FEAEA
:102440001C2040EBC25038BF70471CF07F0F18BFF4
:102450007047C3F12003994014BF401E20F00100D3
:10246000704780084FEA122308BF7047B0FA80FC1B
:10247000A2EB0C02CCF1280C60FA0CF093EA122FBC
:1024800004BF00EBC25070474FEAC3707047130A95
:102490005FEADC1008BF7047F6E79CEA026F04D0E1
:1024A00010EA5C0F08BF0020704710B5FFF73BFF34
:1024B00040DFF63E81F0004070470000DC24000859
:1024C000000000203C00000028010008182500083A
:1024D0003C0000206C0800004401000800000000DF
:1024E00001020304010203040607080902040608A6
:1024F00000000000000000000000000000000000DC
:1025000000A24A04000000000000000001020304D1
:082510000607080900000000A5
:04000005080000ED02
:00000001FF
